{
  "contractName": "Storage",
  "abi": [
    {
      "constant": false,
      "inputs": [
        {
          "internalType": "string",
          "name": "_data",
          "type": "string"
        }
      ],
      "name": "set",
      "outputs": [],
      "payable": false,
      "stateMutability": "nonpayable",
      "type": "function"
    },
    {
      "constant": true,
      "inputs": [],
      "name": "publicGet",
      "outputs": [
        {
          "internalType": "string",
          "name": "",
          "type": "string"
        }
      ],
      "payable": false,
      "stateMutability": "view",
      "type": "function"
    }
  ],
  "bytecode": "0x608060405234801561001057600080fd5b506102d8806100206000396000f3fe608060405234801561001057600080fd5b50600436106100365760003560e01c80634ed3885e1461003b578063b0d5fc95146100b4575b600080fd5b6100b26004803603602081101561005157600080fd5b810190808035906020019064010000000081111561006e57600080fd5b82018360208201111561008057600080fd5b803590602001918460018302840111640100000000831117156100a257600080fd5b9091929391929390505050610137565b005b6100bc61014d565b6040518080602001828103825283818151815260200191508051906020019080838360005b838110156100fc5780820151818401526020810190506100e1565b50505050905090810190601f1680156101295780820380516001836020036101000a031916815260200191505b509250505060405180910390f35b8181600091906101489291906101fe565b505050565b606061015761015c565b905090565b606060008054600181600116156101000203166002900480601f0160208091040260200160405190810160405280929190818152602001828054600181600116156101000203166002900480156101f45780601f106101c9576101008083540402835291602001916101f4565b820191906000526020600020905b8154815290600101906020018083116101d757829003601f168201915b5050505050905090565b828054600181600116156101000203166002900490600052602060002090601f016020900481019282601f1061023f57803560ff191683800117855561026d565b8280016001018555821561026d579182015b8281111561026c578235825591602001919060010190610251565b5b50905061027a919061027e565b5090565b6102a091905b8082111561029c576000816000905550600101610284565b5090565b9056fea265627a7a72315820e12d474cfaa97e86b4e69eb3ee2a1b2b4b46472c9549d9d9950fb36e9ee2e7dc64736f6c63430005100032",
  "source": "pragma solidity ^0.5.0;\n\ncontract Storage {\n  string private data;\n\n  function set(string calldata _data) external {\n    data = _data;\n  }\n\n\n  // public get function accessible outside of the smart contract\n  function publicGet() external view returns(string memory) {\n    return privateGet();\n  }\n\n  // private get function only accessible inside the smart contract\n  function privateGet() internal view returns(string memory) {\n    return data;\n  }\n\n  // in the ABI we will only find the public getter and not the private getter\n  // this ABI is intended to be used by consumer outside of the blockchain\n}\n",
  "sourcePath": "/home/szilard/SOLIDITY/solidity_projects/dapp_frontend_abi/1-copy-paste/contracts/Storage.sol",
  "compiler": {
    "name": "solc",
    "version": "0.5.16+commit.9c3226ce.Emscripten.clang"
  },
  "schemaVersion": "3.4.7",
  "updatedAt": "2022-05-25T21:58:22.509Z",
  "devdoc": {
    "methods": {}
  },
  "userdoc": {
    "methods": {}
  }
}